:020000041000EA
:10000000002008205D0100101B0100101D010010E0
:100010001101001011010010110100101101001058
:100020001901001019010010190100101F01001022
:10003000110100101901001021010010230100100E
:100040001101001011010010110100101101001028
:100050001101001011010010110100101101001018
:100060001101001011010010110100101101001008
:1000700011010010110100101101001011010010F8
:1000800011010010110100101101001011010010E8
:1000900011010010110100101101001011010010D8
:1000A00011010010110100101101001011010010C8
:1000B00011010010110100101101001011010010B8
:1000C00011010010110100101101001011010010A8
:1000D0001101001011010010110100101101001098
:1000E0001101001011010010110100101101001088
:1000F0001101001011010010110100101101001078
:100100001101001011010010110100101101001067
:10011000EFF30580103800BE00BE00BE00BE00BE7A
:1001200000BE00BEF2EB88713CD106105CD1061017
:10013000A001001090A31AE7D3DEFFFF42012110B7
:10014000FF0100009CFF0600793512AB4FF0000064
:100150001E49086006C881F3088810474FF05040D8
:10016000006810B14FF00000F2E70DA40ECC00299A
:1001700002D000F012F8F9E71549164A002000E015
:1001800001C19142FCD11449884714498847144958
:10019000884700BEFDE701C901C29A42FBD3704700
:1001A0005CD106102001002098300020D4000710F8
:1001B0000000082000000820D400071000100820CC
:1001C00000100820000000007047000008ED00E06B
:1001D00098300020C4BC0020A54F00101909001061
:1001E000694F0010F8B500BF0348044B834202D0AA
:1001F000034B03B118477047983000209830002017
:1002000000000000064B0749C91A891048BF013198
:10021000491003D0044B0BB101481847704700BF89
:1002200098300020983000200000000010B5064CE7
:10023000237843B9FFF7D8FF044B13B10448AFF359
:1002400000800123237010BD6435002000000000F1
:1002500000B0021008B5044B1BB104490448AFF3C9
:100260000080BDE80840CDE70000000068350020B0
:1002700000B0021010B5044601F0F8FA00B910BD44
:10028000204601F04BFB47F2305320460B4A04F165
:10029000210116F06FFC0028F1D1094B18680028E5
:1002A000EDD0084C2378002BE9D1502100F098FFC5
:1002B0000028E4D00123237010BD00BF04004000DB
:1002C000D83500208ABC0020012A06D0022A0AD094
:1002D000032A00D022B1002070470160002070473F
:1002E0000260002070470B6803600020704700BF69
:1002F0002DE9F04794B005460DF1280808460F4651
:100300001646CDF8208028F099F80F2804460E9064
:100310007AD8012871D13B788DF8283043460022E5
:1003200009941A5501231146009308A84B4B25F058
:100330003FFF07460DF14009CDF8389057F8083BCC
:100340000446BB426FD00E938368109343680F93AB
:1003500000236FF04042636023720F9B276093423B
:1003600079D001223D490EA825F0ECFF824604AF6A
:1003700002975AF8083B044653455AD002938368C3
:100380000493436803930023C4F800A023720E98DB
:100390006360484503D01099013103F0B7FA08981B
:1003A000404503D00A99013103F0B0FA00220299C6
:1003B0002846039B25F0EEFF411C024622D03A213D
:1003C000284626F01FF8431C1CD000232D6801305E
:1003D000054428460EA90E9329F01CF90E9B0446ED
:1003E000AB420FD00298B84203D00499013103F018
:1003F0008DFA204614B0BDE8F087434600288ED021
:10040000404609E03446EDE7002208A80EA925F091
:100410002DFE0E9B08900A932246394627F078FC61
:100420000E9C089B7BE74268013208D14FF0FF33F6
:100430008DE74268013208D14FF0FF33A2E7394619
:10044000484627F065FC636881E75146384627F047
:100450005FFC636896E7024825F0D2FD00B0021009
:1004600004B002102DE9F04FB1F5C87F0C460546E7
:1004700091461F468DB000F00F81B1F5CA7F00F0A4
:100480000881934A934BC8290CBF904698464FF079
:10049000000E4FF0090B904B05F1080C03CB1B78B5
:1004A0002D22A860E960684603212B74C5F800C0BE
:1004B0000DF1080AC5F804B085F811E0CDF800A0E8
:1004C00025F0FCFD64216FF04042844B844EA3FB79
:1004D00004035B0901FB1344009930330B7006EBF6
:1004E00044035B788B7016F814304B706B68D31A2A
:1004F000DDE900129A4200F2E880284625F022FF4A
:100500000098504503D00299013103F0FFF96FF0D4
:1005100040446B68A34200F0D8800122714928460C
:1005200025F010FF404627F089FF6B680246E31A6A
:10053000984200F2CA804146284625F003FF6B68C6
:10054000E31A0F2B40F2C18010226749284625F09C
:10055000F9FE484627F072FF6B680246E31A98429C
:1005600000F2B3804946284625F0ECFE6B68E41A99
:10057000112C40F2AA80122228465C4925F0E2FEA6
:100580007C68092C40F28B80632C40F29480B4F597
:100590007A7FC0F0928042F20F739C4240F28F80CB
:1005A000534B9C4240F28D80524B9C4240F28B80D8
:1005B000514B9C4238BF07211CD3504B9C4218D949
:1005C0004F4B09219C4215D9013100220DF1200821
:1005D00006A8CDF8188025F071FDDDE90691632CA1
:1005E00012D806EB44035B7816F8144089F8013002
:1005F00023E0082100220DF1200806A8CDF818807C
:1006000025F05CFDDDE906914FF0640E42F20F7CAF
:100610000239324849442346A0FB04A252090EFB8A
:10062000124A144636F81A20634521F80229F2D8F6
:10063000B3F57A7FD5D23034E4B26FF0404389F815
:1006400000406868079A1B1A9A4206993DD82846C6
:1006500025F078FE0698404503D00899013103F053
:1006600055F96FF040446B68E31A032B2DD904222F
:100670002449284625F066FE6B687A68E41AA2428F
:10068000396822D8284625F05DFE28460DB0BDE821
:10069000F08FDFF87880FAE6DFF87480F7E6002262
:1006A00001210DF1200806A8CDF8188025F006FDDF
:1006B000DDF81890BFE7022187E703219AE70421BC
:1006C00098E7052196E705217EE70F4825F098FC7D
:1006D0001CB0021038B0021040B002101F85EB5160
:1006E00008B1021048B002104CB0021060B0021005
:1006F0009F8601003F420F0080969800FFE0F505BD
:10070000FFC99A3B74B0021004B002102CB0021062
:1007100020B002100B462DE9F043714906468DB01A
:10072000104614461F6825F081FE38B96D4904F162
:10073000180025F07BFE054600286ED020466A4949
:1007400025F074FE00283BD1684904F1180025F01B
:100750006DFE0546002833D1D4F83480B8F1000F7F
:100760007BD1182342460DF1200902A90DEB0300AD
:100770000293CDF8189025F079FC0546029F5C4C59
:10078000069008970FCC28606960EB6003CCAA60E4
:1007900028616961069A304607974FF4C87102F8DC
:1007A000078006AB534AFFF75DFE0698484503D025
:1007B0000899013103F0AAF830460DB0BDE8F08386
:1007C0001523002202A90DF1200806A80293CDF8F6
:1007D000188025F04BFC0446029F474D4FF0000C5B
:1007E000069008970FCD61604FF4CA712060A26037
:1007F00028682A79E36020612275069A079706AB7C
:1008000002F807C030463B4AFFF72CFE06984045E9
:10081000CED130460DB0BDE8F08341F26A240246E5
:100820000DF1200802A906A80294CDF8188025F041
:100830001DFC22460446029F30490897069027F087
:1008400067FA30460797C8212D4AE55506ABFFF7F2
:1008500009FE06984045ABD1AEE730344FF07E52EA
:1008600020462849FFF744FD03460022204626493A
:100870000293FFF73DFD0022244903902046FFF735
:1008800037FD03460022204621490493FFF730FD3F
:10089000034602A93846059300F0EEFD14232A46CC
:1008A00001A90DF1200806A80193CDF8188025F0C4
:1008B000DDFB0446DDF804C0164F0690CDF820C0DD
:1008C0000FCF206038686160E360A2602061069A03
:1008D000CDF81CC0C82106AB02F80C5092E700BF4F
:1008E0007CB0021080B0021090B00210C4B00210B0
:1008F000D0B00210B0B0021098B00210D4B1021003
:1009000084B002107CC4061014CB0210A0F30210B5
:10091000ECB00210F0B0021030B5BBB004F070FCC7
:1009200016F070F910B101203BB030BD044616F04E
:1009300015F916F061F915F025FD002831D001AD4B
:10094000092308221A49284600F0C0FC194BCDE9BA
:100950002054194A03AC204620A9CDE9223200F0E8
:1009600053F8229B1BB120A9032208469847134B3A
:1009700020A81C6000F010FF114920A800F05AFFC9
:1009800020A800F01DFF6222002107A827F0B6FA78
:1009900007A800F071FF38B94FF47A7002F022F91D
:1009A000FAE716F06FF9BEE707A8FFF763FCF3E775
:1009B00054260020C902001015070010D835002069
:1009C00075020010BAB970B50D46B9B140F6040011
:1009D000144602F097FF064640F60402214627F02F
:1009E0008DFA314628461DF05BFE284605491DF06C
:1009F0005BFE204670BD6FF0050070476FF005008C
:100A000070BD00BFAD0A001038B50023C0E9003347
:100A1000C0E902338B68044633B10D460222984781
:100A2000D5E90232C4E90232014B20461C6038BDD0
:100A3000DC350020F0B58D68044683B025B1CB6865
:100A40009847204603B0F0BD392300F108012A463B
:100A5000016001A9019325F009FB8646019E124D14
:100A6000A66005F130072060AC460EF1100EBCE820
:100A70000F00BC4505F110054EF8100C4EF80C1C8B
:100A80004EF8082C4EF8043CEED103CD0022CEF8EF
:100A9000000020462B78CEF804108EF8083023682A
:100AA00066609A5503B0F0BD40C402102DE9F04FC6
:100AB00004460D46BFB0002A00F042821646984612
:100AC000002B3DD1118928461DF0FAFAD4F8001800
:100AD00032895318B3F5006F23D243463046214480
:100AE0001DF076F83289D4F8003830461344C4F843
:100AF00000381CF05BFFD4F800780AAE0F2F2C975B
:100B000008962DD9424608A82CA925F0AFFA2C9BAF
:100B100008900A933A46214627F0FAF82C9F089B42
:100B200024E030461CF042FF28461EF09BF940F6B8
:100B30000401204602F0EAFE00203FB0BDE8F08F3D
:100B400010461CF033FF28461EF08CF924B140F605
:100B50000401204602F0DAFE40463FB0BDE8F08FC7
:100B6000012F53D0002F40F0448233464FF0000A4B
:100B70000997524603F807A03B49042308A825F02B
:100B800009FCB0F1FF3F804638D0099B10AF83428B
:100B900028BF03460F2B9946DDF820B00E972C9303
:100BA00000F2E281012B00F0D281002B40F038826C
:100BB0003B4600222D49CDF83C900EA803F80920B1
:100BC0000F2325F0E7FB411C25D002463A210EA851
:100BD00025F018FC421C1ED00E9B0130184426F054
:100BE0001FFD099B043BA3EB0803834213D20E981D
:100BF000B84203D01099013102F088FE0898B04243
:100C00009AD00A99013102F081FE95E723788DF898
:100C100028303346AAE70022D4F800382EA92C91B8
:100C200034A90DF1580A32910DF170093AA90F2B30
:100C3000CDF850A026933891CDF8689015928DF894
:100C400058202D928DF8B82033928DF8D02039920B
:100C50008DF8E82000F2BC81012B09D122784946A9
:100C60008DF8702008E000BF74B002107CC4021040
:100C7000002B40F0898149464FF0000B1B935A46E8
:100C800001F803B01AA80223B44925F083FBB0F1A0
:100C9000FF3F804600F080811B9B984228BF98460A
:100CA00022AB20931A9BB8F10F0F0293CDF89880D6
:100CB00000F2A681B8F1010F00F09D81B8F1000F9C
:100CC00040F0538222AA4FF000032021CDF8848007
:100CD00020A802F80830002225F094FB83460BF18F
:100CE000010320211A4620A8039325F08BFBBBF1BA
:100CF000FF3F029000F060810346013300F05C8109
:100D0000219A0DF1A0085A45134628BF5B46209A48
:100D10000F2BCDF898800492079300F28D81012B60
:100D200000F08081002B40F02E8241460022279364
:100D3000CA54269B2C98434500F0C6812EAA9042A7
:100D40002C9300F0FA81DDE927322D932E9B2E9211
:100D5000002800F0F6812893269000232793037043
:100D60002698404503D02899013102F0CFFD029B1F
:100D700003995A1E219BA2EB0B02994200F2248296
:100D8000A3EB010B934528BF9346209ABBF10F0FAD
:100D9000CDF8988002EB0103CDF81CB000F25D8124
:100DA000BBF1010F00F04381BBF1000F40F0E9817E
:100DB00043460022CDF89CB003F80B20269B3298C6
:100DC000434500F0738134AA9042329300F0AB8126
:100DD000DDE927323393349B3492002800F0A78159
:100DE000289326900023279303702698404503D02C
:100DF0002899013102F08AFD0423002258491AA8DB
:100E000025F0C8FA431C00F0D7801B9B04309842A1
:100E100000F2D581A3EB000B1A99BBF10F0FCDF8AF
:100E20009880CDF81CB001EB000300F26A81BBF1A1
:100E3000010F00F06181BBF1000F40F0A681424636
:100E40000023CDF89CB002F80B30269B3898434520
:100E500000F07D813AAA9042389300F08881DDE964
:100E6000273239933A9B3A92002800F084812893E4
:100E700026900023279303702698404503D0289995
:100E8000013102F043FD209822AB984200F0F78038
:100E90002299013102F03AFD1A98484540F0F3805A
:100EA000304B196801B326A82CAAFFF7C3FD269B77
:100EB0001498434500F0EC805045149300F01281E3
:100EC000DDE927321593169B1692002800F00E815B
:100ED000289326900023279303702698404503D03B
:100EE0002899013102F012FD159A002A7AD128467C
:100EF0001DF0B8FF204640F6040102F007FD3898C7
:100F00003AAB984203D03A99013102F0FFFC329893
:100F100034AB984203D03499013102F0F7FC2C989D
:100F20002EAB984203D02E99013102F0EFFC1498B9
:100F300050453FF45CAE1699013102F0E7FC56E6ED
:100F400008461DF08FFF002C7FF4F1ADF4E59BF80F
:100F500000308DF840303B462BE600BF8CC40210B9
:100F600074B00210DC35002052460EA82CA925F0E2
:100F70007DF82C9B0E9010934A46594626F0C8FEE9
:100F8000DDF8B0900E9B14E648461A46214626F03E
:100F9000BFFE269B1A996FE61A98484503D01C9904
:100FA000013102F0B3FC2F2300210093159A894BE5
:100FB00014A825F0FDF897E7209822AB9842EBD0D3
:100FC0002299013102F0A2FC1A984845E7D1EAE7DC
:100FD0001AA826A9029325F049F8269A029B1C928A
:100FE0001A90D2E701232846149992B21FF04AFDC5
:100FF0007DE730468EE51B7822AA8DF8883062E6C0
:101000005A4620A826A925F031F8269B2090229345
:101010004246029926F07CFEDDF89880209A52E63E
:101020003846A9E7127841468DF8A0207EE6535C49
:101030008DF8A0304346BCE6002226A807A90593F8
:1010400025F014F8079A059B289226901A460499D1
:1010500026F05EFE079B269968E6002226A807A9CF
:10106000029325F003F8079A029B289226905A468D
:10107000194626F04DFEDDF81CB0269B99E61A981D
:1010800048453FF40DAF1C99013102F03FFC07E7E2
:10109000279A32B1012A7AD0414626F039FE279AA2
:1010A0001498002315928354269813E7279A32B197
:1010B000012A78D0414626F02BFE279A3298002349
:1010C0003392835426988DE6279A32B1012A64D050
:1010D000414626F01DFE279A2C9800232D9283541A
:1010E00026983AE6289B1693279B1593CDF898806F
:1010F0000DF1A0084046EDE60B5C42468DF8A030AD
:101100009EE6002226A807A9029324F0AFFF079AC3
:10111000029B289226905A46194626F0F9FDDDF8E2
:101120001CB0269A8CE6289B3493279B3393CDF8EA
:1011300098800DF1A008404654E6289B2E93279BEB
:101140002D93CDF898800DF1A008404605E6279A2A
:1011500032B1012A2DD0414626F0DAFD279A38987F
:10116000002339928354269883E622A850E7289BCF
:101170003A93279B3993CDF898800DF1A00840460B
:1011800077E6404673E7404660E74046C3E79DF890
:10119000A0300370279A149883E79DF8A03003705D
:1011A000279A2C9899E79DF8A0300370279A3298D7
:1011B00085E79DF8A0300370279A3898D0E702465B
:1011C0000549064824F04CFF0A460448024924F029
:1011D00047FF00BFE0C4021090C40210A8C4021070
:1011E00038B50D461DF08EFC90B12A4609490446DB
:1011F0001CF082FE48B9012120461CF0E5FE20B11A
:1012000005491DF05FFA012038BD20461DF02AFE79
:10121000002038BDA8C60610C509001030B500254D
:10122000062185B0009504460DF10B028DF80B10D8
:1012300001232946006806F037FD47F6FE1C00959D
:10124000217903AA02232068ADF80CC006F02CFD1A
:101250004FF0FA0C0095217903AA02232068ADF81B
:101260000CC006F021FD4FF0FB0C0095217903AA7C
:1012700002232068ADF80CC006F016FD4FF0FC0C00
:101280000095217903AA02232068ADF80CC006F06E
:101290000BFD4FF0FD0C0095217903AA0223206875
:1012A000ADF80CC006F000FD4FF4807C21790223DC
:1012B000206803AA0095ADF80CC006F0F5FC4FF4C9
:1012C000FA70002101F076FC05B030BD70B50D4616
:1012D0004FF06C0C0446284616461D4684F804C0A0
:1012E0000D49206006F0BAFC3046032100F07EFB79
:1012F0002846032100F07AFB30460022012100F04D
:1013000093FB00220121284600F08EFB2046FFF7C8
:1013100085FF204670BD00BFA0860100F0B50646DF
:10132000481E032885B04AD8642BA8BF642323EA4B
:10133000E37307EE903A9FED4F7AF8EEE77A67EEA7
:10134000877AFDEEE77A17EE903A0C1DE400662AE4
:10135000E4B2D9B2C3F3072565D0722A31D0002593
:10136000221D3179022330688DF80C20009503AAE4
:101370008DF80D5006F098FC631D009531798DF8BD
:101380000C3003AA022330688DF80D5006F08CFC57
:1013900000950223317903AA30688DF80C408DF84E
:1013A0000D5006F081FC009501340223317930683C
:1013B00003AA8DF80C408DF80D5006F075FC05B0B1
:1013C000F0BD0027231D30688DF80C308DF80D100E
:1013D0000223317903AA009706F066FC00970223E6
:1013E00031798DF80D5003AA651D30688DF80C50C9
:1013F00006F05AFC009702233179306803AA8DF871
:101400000C408DF80D7006F04FFC0134009702235C
:101410003179306803AA8DF80C408DF80D7006F014
:1014200043FC05B0F0BD0027022330688DF80D1095
:1014300003AA317900978DF80C4006F035FC00972F
:10144000022331798DF80D5003AA651C30688DF8A0
:101450000C5006F029FC231D00978DF80C303179D3
:101460000223306803AA8DF80D70053406F01CFCC9
:10147000CCE700BFCDCC234210B52DED068B91ED0E
:10148000018A91ED007A68EE087A91ED029AE7EE12
:10149000077AD1ED039AE9EE097AE9EEA97AF5EE39
:1014A000407AF1EE10FA044600F10D81B1EEE77AD0
:1014B000B5EE407AF1EE10FA05D0C9EE879A88EEC3
:1014C000078A89EE079A79EEC87AB7EE007A77EE46
:1014D000C97AF4EEC77AF1EE10FA00F3D580BFEEC8
:1014E000007AF4EEC77AF1EE10FA00F1E0809FED99
:1014F000797A27EE877A79EE887AF7EE006A77EEC6
:10150000C97AF4EEE67AF1EE10FA00F3BA80FFEE53
:10151000006AF4EEE67AF1EE10FA00F1D180DFED28
:101520006D6A67EEA68A78EE697AF7EE006A77EE62
:10153000C97AF4EEE67AF1EE10FA00F39F80FFEE3E
:10154000006AF4EEE67AF1EE10FA00F1B680DFED13
:10155000616A27EEA6AAB1EE488A38EE698AF7EEEC
:10156000007A38EE498AB4EEE78AF1EE10FA3FDCF1
:10157000FFEE007AB4EEE78AF1EE10FA00F19A80FD
:10158000DFED547A28EE278AB5EEC07AF1EE10FA34
:1015900035DC7CD40023662201212046FFF7BEFE05
:1015A000F5EEC08AF1EE10FA39DC78D40023662219
:1015B00002212046FFF7B2FEB5EEC0AAF1EE10FA06
:1015C0003DDC68D40023662203212046FFF7A6FEF7
:1015D000B5EEC08AF1EE10FA41DC64D4BDEC068BA6
:1015E0002046BDE81040002366220421FFF796BE86
:1015F000B5EEC07AF1EE10FA9FED368AC9DDF0EE55
:10160000C77A6622FDEEE77A0121204617EE903A6E
:10161000FFF784FEF5EEC08AF1EE10FAC5DDF0EEBC
:10162000E87A6622FDEEE77A0221204617EE903A2C
:10163000FFF774FEB5EEC0AAF1EE10FAC1DDF0EED0
:10164000CA7A6622FDEEE77A0321204617EE903A29
:10165000FFF764FEB5EEC08AF1EE10FABDDDB0EE24
:10166000C88A6622FDEEC87ABDEC068B2046BDE82E
:101670001040042117EE903AFFF750BE9FED15AAD7
:1016800069E7DFED148A4EE79FED127A33E7F0EE5B
:10169000C77A7222B6E7F0EECA7A7222D2E7F0EE8B
:1016A000E87A7222BEE7B0EEC88A7222DAE79FEDCE
:1016B0000A7A20E79FED088A66E79FED07AA4AE7C6
:1016C000DFED058A2FE717EE900A29F049FC07EEB7
:1016D000100AEDE60000C8420000C8C2042802D18A
:1016E0001378602B00D070479378022BFBD1002336
:1016F0003021072000B587B004AACDE9010300928C
:1017000008461A460493ADF8143014F00BFE01207D
:101710000CF0D8F907B05DF804FB00BF70B51D4AA6
:10172000BDF8146015683DB11C462BB903290FD0D4
:1017300005291DD0072901D0002070BD01226B6E44
:1017400085F86220002BF7D028469847002070BD0E
:1017500019462122284626F0D1FB202E3246284663
:1017600028BF2022049926F0D3FA85F86240E3E7E7
:1017700005F1210341222146184626F0BFFB402EE9
:101780003246049928BF402226F0C2FA85F862400A
:10179000D2E700BFC435002010B562220021044604
:1017A00026F0ACFB0023204684F86230636600F02C
:1017B00043F8024B20461C6010BD00BFC43500201A
:1017C00010B5002488B00CF09BFD14F041F8032004
:1017D00014F038F8012014F02FF82146114A12486D
:1017E0000FF090FC114B06A8CDE9064309F0E2FD8D
:1017F00014200F490CF026F93021072004AA2346B3
:10180000009201902246084602940494ADF81440D8
:1018100014F088FD01200CF055F901200CF06CF853
:1018200008B010BD1D17001024C50210DD160010F1
:1018300010C502104166704798B110B504464222A7
:101840000021203026F05AFB20222046054926F0B0
:1018500065FE04F121004022BDE81040024926F057
:101860005DBE70472CC6021038C6021000780038E2
:1018700018BF0120704700BF002844D0224A38B565
:101880001268224B9A423CD14FF0FF32204C214B40
:10189000214D14F8011B514041F300021A4082EA25
:1018A000510242F30001194081EA520141F3000262
:1018B0001A4082EA510242F30001194081EA5201C2
:1018C00041F300021A4082EA510242F3000119403A
:1018D00081EA520141F300021A4082EA510242F3C6
:1018E00000011940AC4281EA5202D2D1D243064BE8
:1018F0005B68934205D16222054926F009FA01206E
:1019000038BD002038BD704700F03F1049464957A8
:1019100008F03F102083B8ED6AF03F1010B5044680
:10192000DCB06822002102A826F0E8FA2C4B6222E3
:10193000214603A8019326F0EBF94FF0FF32294B23
:101940000DF10B000DF16D0C10F8011F514041F32A
:1019500000021A4082EA510242F30001194081EA72
:10196000520141F300021A4082EA510242F300019F
:10197000194081EA520141F300021A4082EA510201
:1019800042F30001194081EA520141F300021A407A
:1019900082EA510242F300011940844581EA520271
:1019A000D2D1D2430292EFF3108472B64FF4805139
:1019B0000D4829F0C5FA9422FF2137A826F09EFA97
:1019C00001A96C221CA826F0A3F94FF480720648E6
:1019D0001CA929F075FA84F3108801205CB010BDB1
:1019E000494649572083B8ED00F03F0010B44FF44A
:1019F00080740C4B53F8202003EB8003C00082F06E
:101A0000400200F1804003F5805C02F0C00200F566
:101A1000203003F54053CCF8002041601C605DF895
:101A2000044B70470480034010B4084CC90041EADD
:101A3000820154F8202004EB8003514003F58053C9
:101A400001F00C015DF8044B1960704704800340FD
:101A5000022221B1044B904003441A607047034BAB
:101A6000904003441A60704704A0034004B0034050
:101A700070B44FF050460F4B36680F4D00F0070C16
:101A8000002E18BF2B46C0080C4C4FEA8C0C01FAF4
:101A90000CF103EB80038C3044F8201022B170BCB1
:101AA00003F500531960704703F54053196070BC8B
:101AB000704700BF4882024090820240008002408E
:101AC0002DE9F0414FF050480D4FD8F80030164640
:101AD00057F82320044602420D4609D114432946F3
:101AE000324647F823401520BDE8F04100F0D8B950
:101AF00001F000FBD8F8003057F82320EEE700BFD4
:101B0000F8B9002010B50446152000F0CBFA4FF0CC
:101B10005043044A196852F8213023EA040342F87A
:101B2000213010BDF8B9002030B44FF0000343EC71
:101B3000440043EC400005254FF480740B4BC20079
:101B400053F8201003EB800081F0400102F1804344
:101B500003F5203301F0C00200F5805100F540503C
:101B60000A605D60046030BC704700BF04800340C1
:101B70000FB400B583B0049C074803F085FB3CB16B
:101B800005A92046019103F0B9F9044803F07CFB54
:101B9000012003F0CBF900BF48C6021078C4021040
:101BA000EFF3108072B6064BD3E8CF1F0122002955
:101BB000FAD1C3E8412F0029F6D1BFF35F8F7047F8
:101BC000D73600200023034AC2E88F3F80F31088F5
:101BD000704700BFD736002070B58646EFF31085FA
:101BE00072B6124CD4E8CF6F0120002EFAD1C4E8AF
:101BF000460F002EF6D1BFF35F8F4FF0010CC808DF
:101C000001F007030CFA03F31EF800C01CEA0306F8
:101C100008D14CEA030C0EF800C0C4E88F6F85F3BE
:101C2000108870BD1046FFF7A3FF00BFD736002015
:101C3000F8B5EFF3108572B6234CD4E8CF7F0126B8
:101C4000002FFAD1C4E8476F002FF6D1BFF35F8FA2
:101C50009A4227D80126D70810F807E002F0070CAF
:101C600006FA0CFC1EEA0C0F00EBD2070DD125E0A2
:101C70004FEAD20E10F80EE002F0070C06FA0CFC48
:101C80001EEA0C0F00EBD20718D001329342EFD2BC
:101C90004FF0FF300023C4E88F3F85F3108898424F
:101CA00007DBF8BD0023C4E88F3F85F310884FF0B1
:101CB000FF300029F5D00698FFF75AFF4EEA0C0EC8
:101CC000104687F800E0E5E7D736002000B5EFF3CF
:101CD000108E72B6104BD3E8CFCF0122BCF1000FAB
:101CE000F9D1C3E84C2FBCF1000FF4D1BFF35F8FE3
:101CF00001224FEAD10C01F0070102FA01F110F8BC
:101D00000C2022EA010200F80C200022C3E88F2FE9
:101D10008EF310885DF804FBD7360020044A107853
:101D2000431CDBB2182B28BF10231370704700BF71
:101D3000AC25002010B5054C82B001461F231822A7
:101D400000940348FFF774FF02B010BD58C602109C
:101D5000603E00204FF0E022936843F00053936010
:101D6000704700BF0021044B03F12002C3E88F1F1E
:101D700001339342FAD17047CC3600204FF0E02374
:101D80004FF08032C3F80024C3F80424C3F80824B9
:101D9000C3F80C24C3F81024C3F81424C3F818247F
:101DA000C3F81C24C3F82024C3F82424C3F828242F
:101DB000C3F82C24C3F8302462B67047012300F026
:101DC0001F029340400941B1800000F1604000F5DE
:101DD0006140C0F8803103607047024A203042F809
:101DE0002030704700E100E00123064A410952F823
:101DF000212000F01F008340134214BF0120002067
:101E0000704700BF00E100E001224309034900F0F0
:101E10001F008240403341F82320704700E100E07A
:101E2000054A10309268054B52F82000C01A2F283E
:101E30008CBF00200120704700ED00E0B02500209D
:101E4000F8B50D46EFF3108772B6124ED6E8CF2FD5
:101E50000123002AFAD1C6E8423F002AF6D1BFF397
:101E60005F8F0D4B00F110049B680C4A53F824302F
:101E7000934203D0994201D001F03CF9064B9B6894
:101E800043F82450BFF35F8F0023C6E88F3F87F3EA
:101E90001088F8BDD536002000ED00E011010010DB
:101EA0002DE9F04F81468B46164685B0EFF3108240
:101EB00072B6DFF8ECA1DAE8CF1F01230029FAD1CE
:101EC000CAE8413F0029F6D1BFF35F8F6D4B93F90C
:101ED0000040002CC0F28C806B4D04EB440705EBF6
:101EE000870898F8061009F110091970674BBF00B0
:101EF0009B6853F829006300411B2F2901932FD9B8
:101F00006349884240F0B28063001C44614B023751
:101F10002F44043BDB1BC3F34A036FEAC3434FF474
:101F200021416FEAD34325F8241005EB8404638034
:101F30004BF60153A380FF2348F00100E671C4F87B
:101F400008B0A371514B9B6843F82900BFF35F8F22
:101F50000023CAE88F3F82F3108805B0BDE8F08FF8
:101F600020F0010E9EF80710B14288BF02972ED8CC
:101F70004FF42143EB53474BB91C2944043B04372E
:101F80005B1A2F44AEF10401434CC91BC1F34A0153
:101F90002143A8F80410C3F34A0340492343A8F897
:101FA00002304AF6AA2073465B1B5B415843000D82
:101FB00088F8076088F80600C8F808B048F0010003
:101FC000CEF80010BEE7CF79B74219D98E469EF9F8
:101FD00006C00CEB4C01BCF1000F05EB8101F2DAFD
:101FE00001934BF6015303930EF1040302931FE098
:101FF000019201F07FF8234B019A93F900406BE7BF
:102000000193BEF804300EF10401029F02915905BC
:1020100031D4029B4915023103EB41036FF00701F4
:10202000C91B491B1944C1F34A0141F4604303939E
:102030000299A8F104077F1AC7F34A076FEAC74756
:10204000019B6FEAD747234498468EF806400399D0
:10205000124C05EB8303AEF8047045F828409980D4
:1020600083F806C0DE71C3F808B06BE7019201F097
:1020700041F8019A48E701F5FF1101F5FF511F31C1
:10208000C7E700BFA1BC0020B025002000ED00E0A4
:1020900011010010E025002000E0FFFF014880470B
:1020A000D53600202DE9F04F83B0EFF3108A72B6D9
:1020B000744ED6E8CF2F0123002AFAD1C6E8423F5A
:1020C000002AF6D1BFF35F8F6F4B00F110089B68B9
:1020D0006E4A53F8285095423FD08D420C464AD064
:1020E0006B4FEB1B2F2B38D801214FEA50194FEAC9
:1020F000890909F1604909F5614900F01F0301FAF6
:1021000003F0D9F80030C9F8800000EA030BBFF3F0
:102110005F8FEFF30581C9B279B3884577D125F098
:10212000010EDEF808C0644505D17CE0D3F808C094
:10213000644532D09E469EF9062002EB4203002AF7
:1021400007EB8303F2DA644500F08180BBF1000FF6
:1021500020D0C9F88001C9F800004B4B9B6843F8B8
:102160002850BFF35F8F0023C6E88F3F8AF31088A3
:1021700003B0BDE8F08F1546EFE725F0010EDEF85D
:1021800008C06445D7D19EF906407346002C08DA92
:10219000154666E0C9F88000DFE793F90640002C99
:1021A00056DB04EB440C07EB8C0CDCF808206100D8
:1021B0009A609CF80720DA719CF90620002A9A712F
:1021C0005DDBBCF80420520504D502F5FF1202F5D0
:1021D000FF521F32521502F1020C4FF0040E0C2276
:1021E00012FB04E202EB4C026FF0070C3A44ACEB3A
:1021F000030C6244C2F34A0242F460429A80254BC7
:1022000021441A7807EB81011C708A719EE7CDE9A1
:10221000000100F06FFFDDE9000125F0010EDEF89E
:1022200008C0644587D19EF906407346002CB8DA91
:10223000194A1A4CD21A083AC2F30A316FEA01510C
:102240006FEA115144EA5202DA8099807EE77346C0
:102250000029EDD1FF228EF806204BF60152AEF890
:1022600004200C4C4AF6AA2294F800C01946C91B57
:1022700049414A43120D83F806C0227066E74BF6C7
:102280000152BBE7D536002000ED00E0110100103F
:10229000B0250020A1BC0020EA25002000F8FFFFA7
:1022A0004FF0FF0C20F0030303F1604303F5644398
:1022B00000F003001A68C0000CFA00FC22EA0C02CD
:1022C00081400A431A607047F0B5EFF30585EDB21F
:1022D000EFF3108C72B62649D1E8CF2F0123002AE4
:1022E000FAD1C1E8423F002AF6D1BFF35F8F214EF9
:1022F00040F0010EB4684AF6AA2354F825701E4A2D
:102300000446A41A644163431B0D77455BB21BD09E
:1023100092F906409C421CD092F912409C4223D074
:1023200092F91E409C4221D092F92A409C4208BF5B
:1023300003240FD0114A0024157813708571C1E869
:102340008F4F8CF31088F0BDB2680D4C42F82540D9
:10235000F0E7002404EB440402EB8402FF249471B0
:102360004BF601549480E5E70124F3E70224F1E7FA
:10237000D536002000ED00E0B0250020A1BC0020F3
:102380001101001001460248C1F13301FFF79EBC64
:10239000C1BC002010B5074C82B0014605230022C5
:1023A00000940548FFF744FC0028A8BFC0F13300A3
:1023B00002B010BD74C60210C1BC002070B5044646
:1023C00016460D46FFF7AAFC0146204600F006F827
:1023D000E680A580BFF35F8F70BD00BF014B0B444B
:1023E00003607047CC360020F8B5124D124EB5424E
:1023F0001FD22C462368FF277BB1FFF78FFC0146D5
:102400002846FFF7EBFFA780BFF35F8F0834B44285
:102410000FD223682546002BEFD1FFF77FFC014642
:102420002846FFF7DBFF2771BFF35F8F0834B44204
:10243000EFD3F8BD903000209830002010B504464E
:10244000FFF76CFC01462046FFF7C8FFFF2323710E
:10245000BFF35F8F10BD00BF10B50446FFF75EFCF1
:1024600001462046FFF7BAFFFF23A380BFF35F8F2B
:1024700010BD00BF10B504460120FFF75BFC034B05
:1024800003442360BFF35F8F10BD00BFCC36002034
:10249000024B0B440360BFF35F8F7047CC360020C4
:1024A0000D4B1A68EFF3108172B6D2E8CFCF01203E
:1024B000BCF1000FF9D1C2E84C0FBCF1000FF4D110
:1024C000BFF35F8F00221B68C3E88F2F81F3108852
:1024D00040BF00200021704718BA00200000000013
:1024E0002DE9F04F2DED028B85B0EFF30583DBB2C4
:1024F000103B9A0818BF01224FF0010103F00300BE
:1025000008BFAD4DAD4B18BFAD4D00EB820253F887
:10251000226001FA00FB05F541539FEDA58B019068
:10252000C3F804B02EE0B388190440F19180B37968
:10253000002B40F0DB80B6F90820002AC0F21A8197
:10254000736902EB420203EBC203D3E90247B7F11E
:10255000FF3F08BFB4F1FF3F0DD0019B05EB8301A6
:10256000AB6A0A69D21AE31A934203D32B6A13EABD
:102570000B0F00D10C61284600F0CAFBA042B94104
:10258000C0F2F880B6F90830C5F83CB0002B0093D3
:10259000C9DBD6F8149003EB430A284609EBCA07B7
:1025A000D7E9024800F0B4FBA04271EB0801BADBA6
:1025B000B8F1000FC0F2C0803A69824B9A4200F035
:1025C000EA807988B6F9080089B241EA0040796961
:1025D000904703460A4653EA020100F0AD80002A04
:1025E00080F2CE80E31A68EB020839F93A20C7E995
:1025F0000238002A97DB706902EB420100EBC1014F
:10260000D1E902C7634578EB070E4FEA42018ADB46
:10261000B6462EF8082F0BE030F93120A646002AE6
:102620000DDB02EB420400EBC4045100D4E902C705
:102630006345114478EB070700EBC104ECDA009B1B
:1026400029F83A20AEF80030B38819043FF56FAF8F
:102650003369EFF3108272B6D3E8CF0F012100285F
:10266000FAD1C3E8401F0028F6D1BFF35F8F4FF6C1
:10267000FF74B0880023316900B2B480C1E88F3F95
:1026800082F310889842FFF652AF0746A946746954
:1026900006F1080807EB470E04EBCE03D3E9020569
:1026A000B6F90830C446002B13DBB246009704E0AD
:1026B00034F936309446002B09DB03EB430604EB78
:1026C000C602D2E90271B84275EB0101F0DA564652
:1026D000009FACF8007034F93E7024F83E30002FB3
:1026E000D8DAB3794D46002B3FF425AF0023B37100
:1026F000B6F9083006F1080E5A1C3BD01A46746928
:1027000003E08646591C3FF418AF03EB430104EB8A
:10271000C10047889C463F0434F93130F1D59445D7
:1027200080ED028BEED0AEF80030328924F83120F3
:102730006246A6F808C0E5E739F83A2032813269E6
:10274000EFF3108172B6D2E8CF7F0120002FFAD1CB
:10275000C2E8470F002FF6D1BFF35F8F7288009B4E
:1027600029F83A20738032690023C2E88F3F81F351
:102770001088D8E640BF05B0BDEC028BBDE8F08FF5
:102780002846CDE9023200F0C3FA029B039AC3182F
:1027900042EB010829E7796908460A6902919047E6
:1027A0000028C9D00299D1E9003214E7AFF30080C4
:1027B000FFFFFFFFFFFFFFFF00000B40BC91002069
:1027C00000800B40E12400102DE9F84F364C2569BC
:1027D0002DB1BDE8F84F0A213448FFF7FFBDDFF8FF
:1027E000E4800321404600F081FA0326C4F80C80FF
:1027F000FFF794FA4FF0504C2D4B267003442361A1
:10280000DCF800300F216370636961801D834FF035
:102810000405A3F878504FF00505A3F890504FF049
:102820000605A3F8A8504FF007050E2108274FF61C
:10283000FF724FF00A0EA3F8C0504FF001094FF09D
:102840000C0C4FF0020B4FF0090A0D204FF00B0556
:10285000A3F868111749A280A3F808E1A160A3F8C2
:1028600048B0A3F8F0A0A3F82051A3F838C1A3F80A
:102870005001A3F83090A3F86060A3F8D8701A80D4
:102880000D4B3046C8F820700C49DC60FFF7D8FAD1
:1028900049463046FFF792FA094B0A211F64034864
:1028A000BDE8F84FFFF79ABDF825002018BA0020C0
:1028B000CC360020FFFF1000BC910020E124001066
:1028C00000200B4000000B4000487047F825002016
:1028D000F8B59DF82070044616461D4637B900F03D
:1028E0001FFA864265EB010100295CDB2369EFF3E7
:1028F000108772B6D3E8CF1F01220029FAD1C3E8AE
:10290000412F0029F6D1BFF35F8FB4F902C063698C
:102910000CEB4C01BCF1000F4FEAC10203EBC1010B
:1029200038DB985A4FF0000E60802069C0E88FEFC6
:1029300087F310880698C1E9026508610798486125
:1029400048880130C0F30E00012838BF01204880BC
:1029500040EA0C402169EFF3108572B6D1E8CF7FD1
:102960000126002FFAD1C1E8476F002FF6D1BFF33F
:102970005F8FA1889952A4F804C02369C3E88FEF40
:1029800085F310880122E368217803F501538A401A
:102990005A60F8BD00232269C2E88F3F87F3108890
:1029A0004FF0FF30F8BD3846F8BD00BF0146F0B526
:1029B0000069EFF3108772B6D0E8CF5F0124002DD5
:1029C000FAD1C0E8454F002DF6D1BFF35F8FB1F9C2
:1029D00002E04C690EEB4E0CBEF1000F4FEACC0545
:1029E00004EBCC0C3DDB605B002648800869C0E846
:1029F0008F6F87F31088BCF80200CCE90223013006
:102A0000C0F30E00012838BF0120059BACF802007E
:102A1000CCF81030069B40EA0E40CCF814300B691D
:102A2000EFF3108272B6D3E8CFCF0127BCF1000FCD
:102A3000F9D1C3E84C7FBCF1000FF4D1BFF35F8F35
:102A40008B886353A1F804E00B69C3E88F6F82F3AE
:102A500010880122CB68097803F501538A405A6037
:102A6000F0BD00230A69C2E88F3F87F310884FF05A
:102A7000FF30F0BD03464089B0EB214F37DD586988
:102A80000A1402EB420210B500EBC2001C69EFF31E
:102A9000108C72B6D4E8CFEF0122BEF1000FF9D14D
:102AA000C4E84E2FBEF1000FF4D1BFF35F8F428810
:102AB00089B292B28A4207D000221B69C3E88F2FE5
:102AC0008CF31088002010BD42F4004242800121A6
:102AD000002218699971C0E88F2F8CF310881C7838
:102AE000DA68084602F50153A140596010BD002084
:102AF000704700BF407870472DE9F041861F41F1D3
:102B0000FF35B04271EB050338BF002682B038BFF5
:102B1000354604460F4600F003F9301A65EB010311
:102B2000012873F1000306DA2046394602B0BDE8F9
:102B3000F04100F0FFB800F0F3F8864265EB0101C8
:102B400000290ADB0021174B3246009316482B461A
:102B50000191FFF72BFF0028E6DB4FF0000C134834
:102B6000134A436A9D4204D8816AB142DCD29D4235
:102B7000DAD11368EFF3108172B6D3E8CF8F5FF02C
:102B8000010EB8F1000FF8D1C3E848EFB8F1000F1B
:102B9000F3D1BFF35F8F1368C3E88FCF81F3108841
:102BA00020BFDEE7A1240010F825002000000B4024
:102BB00018BA002038B504460D4600F0B1F84FF0C1
:102BC000FF326FF00043201845EB0101824273EBA6
:102BD000010438BF1946BDE8384038BF1046FFF73A
:102BE0008BBF00BF10B5044600F09AF84FF47A731B
:102BF0004FF0FF3C6FF00042E4FB0301BDE81040E2
:102C0000844572EB01033CBF60461146FFF774BF79
:102C10002DE9F04306460D4683B0EFF30584E4B298
:102C200074B12F4B586A884203D2002003B0BDE82C
:102C3000F0839B6AB34248D3012003B0BDE8F08320
:102C4000284FD7F80C9097F80080484600F060F8BD
:102C500008F1040859F828301B1A301A65EB0101F5
:102C6000984271F100010DDB20BF1D4B586A85426F
:102C7000DBD89B6AB342DFD2281A18BF012003B009
:102C8000BDE8F08300F04CF8864265EB01010029B5
:102C900013DB154B3846CDE9003432462B46FFF79F
:102CA00085FE011E09DD0E4B5A6A954215D89B6AB6
:102CB000B34210D30B48FFF7DDFE094B586A85423B
:102CC000B3D89B6AB342B7D2D6E7401A18BF0120E7
:102CD00003B0BDE8F0839542ECD120BFEAE700BF26
:102CE00000000B40F8250020A124001010B4054B73
:102CF000054C064AA04214BF1846581C5DF8044B08
:102D0000FEF76ABF643E002000800B4098C60210A8
:102D10000346416A0A46986A596A8A42FAD170475C
:102D2000034B596A0A46986A596A9142FAD1704728
:102D300000000B40074A536A9942FCD8994207D1D8
:102D4000044B02E05A6A914202D19A6A8242F9D354
:102D5000704700BF00000B4000EB400C4FEA8C0CAA
:102D60000CF1804C0CF5803CF0B51646DCF80420E4
:102D7000051FB2F5803F38BF4FF48032EDB238BF47
:102D8000CCF80420012D2AD94FF40067254C0CF50E
:102D90004052176054F82020B2B9DCF80020012D11
:102DA00082EA461202F0E0020CF5805632602AD91F
:102DB0004FF4006144F820304FF480330CF500529A
:102DC0001160CCF80430F0BD6769B7FBF2FE0EF17C
:102DD000010E0EEB4E0EBEF1030EFCD2DDE7012913
:102DE000D2D103240CF540521460DCF80820D2073D
:102DF000FBD5DCF800200B4C82EA461202F0E00220
:102E00000CF5805632600122DCF800504D4005F090
:102E10000305356002FA01F1DCF808200A42FBD014
:102E2000C6E700BF6C3E0020014B53F820007047FE
:102E30006C3E002070B4039D04682D0345EA0345F1
:102E40001B4B002CB3FBF1F3B2FBF3F61FDB194A6B
:102E5000194B90420CBF4FF400424FF48042174C84
:102E60001A6003F580531A60A36832EA0303FBD1AA
:102E7000212200F540530433016086601A60026825
:102E8000002AFCDA0822C5601A6070BC704703682B
:102E900003F03F038B42DAD18368C3F30B03B342E1
:102EA000D5D1C36803F4EE23AB42D0D1EDE700BF28
:102EB000001BB700008005400020024000000240D7
:102EC00030B44FF080441C4B1C60E0B11B4CA3F5A8
:102ED0004053DC611A4C40F0010044401C625962CE
:102EE00098624FF080454FF0E061134B1548164C47
:102EF0001D60846019604AB930BC4FF00042A3F5F0
:102F000080531A607047114BD861EAE74FF47A7327
:102F100003FB02F2B2F1807F2ABF6FF07F431346BA
:102F20001A464FF080410A4C08482360094B426022
:102F300030BC1960704700BF00B00D40D3C007B06F
:102F40002D3FF84F00A00140F3FFFF0100800D402E
:102F5000D857002000A00D40012300EB4000800066
:102F600000F1804000F5841041600360704700BFAD
:102F7000002370B5DB8A04460D46002242E800F2C9
:102F8000520254BF1021042144F252209847864631
:102F90002B462246F446BDE870400A214FF481706A
:102FA000604700BF0023DB8A002242E800F25202A1
:102FB00001D4102118470421184700BF08B5034663
:102FC0000846191E02DB1AB140F03000FFF7D0FFAF
:102FD00040F02000FAE700BF002310B5DA8A04466B
:102FE00086B0002343E800F35B0254BF10210421A4
:102FF00045F24730904710220346052101A8984723
:10300000052802D0002006B010BD0DF1080CBCE868
:103010000F00206001206160A260E36006B010BD77
:10302000034AD2F82838002BFBD0BFF35F8F7047DC
:1030300000000E400021044B044ABFF35F8F43F8A9
:10304000041B9342F9D170470C080E402C080E4027
:10305000012070474FF050431A68EFF3108172B6A9
:10306000024B002043F82210704700BFA8560020F2
:103070004FF05042034B126853F8223083F310880C
:1030800000207047A85600200048704710260020F6
:103090002DE9F04106460F461546FFF7F5FF58B1FA
:1030A000044643682846984740B93846B047284602
:1030B000A368BDE8F04118476FF00300BDE8F08158
:1030C00010B44FF48D704FF42A64064A064B07493A
:1030D0001460D06019605368002BFCDA5DF8044B73
:1030E000704700BF0080044000A0044000B0FA0018
:1030F000704700BF08B50148FEF73AFDBCC6021094
:1031000038B5054C054DAC4204D254F8043B984701
:10311000AC42FAD338BD00BFB0AF0210F0AF02101E
:1031200010B40748074C084B084A094904601A6064
:103130008B6832EA0303FBD15DF8044B704700BF94
:10314000002002407F3BEFEF00300240F6FFF30328
:1031500000000240044BDB6CB3F5004F03D14FF489
:103160008022024BDA647047000011500020115099
:103170004FF0E022044BD2F8881D0B43C2F8883D83
:1031800010EE3004704700BF030330006FF0604161
:10319000044B054A19609368DB4333F06043FAD16E
:1031A000704700BF003002400000024010B545F2F9
:1031B0005320FFF7F7FEBDE81040034604201847F0
:1031C00010B545F25320FFF7EDFEBDE81040034671
:1031D00001201847FEF7C6BD70B51749174C184EA9
:1031E000641AA510442D2A4628BF44223046920076
:1031F00024F08EFDB4F5867F1AD86B1C442BC5F1E4
:103200004401104A88BF012110D8B4F5867F0DD043
:103210003319480803EBC0001A605A600833834230
:10322000FAD1CB0704D521F001010D4446F8252041
:10323000054B9E6070BD00BF000000101001001023
:10324000000000201101001000ED00E00023F0B5A7
:103250002B4C83B0C4F88430FFF732FF0122294B96
:10326000DA63636C012BFCD10321264A244B1163E2
:103270009D6B012DFCD1052302271E460024294603
:10328000214A22480097FFF7D5FD29463346204AB8
:1032900020480096FFF7CEFD3946224604201E4BFB
:1032A000FFF75AFD2946224630461C4BFFF754FDD6
:1032B0002246082021461A4BFFF74EFD22460920E0
:1032C0002146174BFFF748FD224606202146134BA7
:1032D000FFF742FD114B224607202146FFF73CFD38
:1032E0000420FFF7A1FD0F4BA3FB0035AD0CE0B2AE
:1032F00029460134FFF730FE062CF8D103B0F0BDAB
:103300000000014000300140002F685900000540D6
:10331000008C864700800540001BB70080D1F00874
:10332000006CDC0283DE1B4386B003B451FC08044E
:10333000CDE9020151FC0904CDE9040151EC0A0474
:10334000CDE9060103BCF047BDE800504EEC00C4D7
:10335000BDE800504EEC01C4BDE800504EEC02C484
:1033600000BD000000B5FFF7DFFF02E010FE30F403
:10337000F8D441EC100443EC112400EE010410EEEB
:10338000010480EE200451EC1004704700B5FFF7F3
:10339000CBFF02E010FE30F4F8D441EC100443EC13
:1033A000112400EE010410EE210480EE200451EC03
:1033B0003004704700B5FFF7B7FF02E010FE30F4AD
:1033C000F8D410B541EC100443EC112451EC040482
:1033D00053EC0524A0FB024C5FF0000EE0FB03CE93
:1033E000E1FB02CE4CEC20440024E1FB03E444EC7E
:1033F00030E480EE200451EC5004BDE810407047EA
:1034000000B5FFF791FF02E010FE30F4F8D441EC74
:10341000100443EC112451EC2104A0FB01126FEACB
:10342000820252FB100052FB12F252FB1000A0EB82
:10343000D07C53EC04245CFB13F153EC1524A1FB6A
:10344000022001FB030053EC4424A2EB000050FBDC
:103450001CF24FEA111312EB017043EBE27140EAE8
:10346000515020EA915020F0070053EC7524A0FB46
:10347000023C53EC752400FB03CC01FB02CC53EC63
:103480000424ACEB824C40EA5C70A0F1010041ECFA
:10349000400480EE200451EC7004704700B5FFF743
:1034A00043FF02E010FE30F4F8D441EC100480EE4B
:1034B000220410EEB204704700B5FFF735FF02E0BA
:1034C00010FE30F4F8D440EC700400EE010410EE6D
:1034D000210480EE200451EC3004704700B5FFF762
:1034E00023FF02E010FE30F4F8D440EC600400EE5C
:1034F000010410EE210480EE200451EC30047047EA
:1035000000B5FFF711FF02E010FE30F4F8D441ECF3
:10351000800400EE010410EE010480EE400410EE81
:103520001304704700B5FFF7FFFE02E010FE30F411
:10353000F8D441EC800400EE010410EE010480EEAA
:10354000400410EE3304704700B5FFF7EDFE02E0D3
:1035500010FE30F4F8D441EC100443EC112400EEDA
:10356000010410EE3004C0F30070704700B5FFF79F
:10357000DBFE02E010FE30F4F8D441EC100443EC22
:10358000112400EE010410EE3004C0F38070704787
:1035900000B5FFF7C9FE02E010FE30F4F8D443ECAA
:1035A000102441EC110400EE010410EE30F48CBF45
:1035B00001200020704700BF00B5FFF7B5FE02E014
:1035C00010FE30F4F8D443EC102441EC110400EE6A
:1035D000010410EE30F42CBF01200020704700BF22
:1035E00000B5FFF7A1FE02E010FE30F4F8D441EC84
:1035F000100443EC112400EE010410EE30F42CBF53
:1036000001200020704700BF00B5FFF78DFE02E0EB
:1036100010FE30F4F8D441EC100443EC112400EE19
:10362000010410EE30F48CBF01200020704700BF71
:103630000022002950DA404261EB4101C9B1B1FAE0
:1036400081F30B3B17D4D3F1200C30FA0CFC9840DB
:10365000994051EA0C011A44524202F2324201EB03
:10366000025141F0004140F2FE739A4238BF704768
:1036700021E011467EE003F1210310FA03FCA3F1DF
:10368000010301FA03FCC3F1200320FA03F021FA3D
:1036900003F140EA0C00A3EB020202F2324214D022
:1036A00050F1000041EB025141F0004140F2FE7345
:1036B0009A4238BF70474FF00001A8BFC7F6F071BB
:1036C0004FF00000704700217047EBD350F100002D
:1036D00020F00100E6E70022B9B1B1FA81F30B3B1B
:1036E00016D4D3F1200C30FA0CFC9840994051EAE2
:1036F0000C011A44524202F2324201EB025140F2F2
:10370000FE739A4238BF704720E0114600F066B859
:1037100003F1210310FA03FCA3F1010301FA03FCF6
:10372000C3F1200320FA03F021FA03F140EA0C0070
:10373000A3EB020202F2324212D050F1000041EB40
:10374000025140F2FE739A4238BF70474FF00001B9
:10375000A8BFC7F6F0714FF0000070470021704716
:10376000EDD350F1000020F00100E8E7002880F2DE
:1037700035804042B0FA80F30B3B11D4984001EB06
:103780000302524202F2124200EB025141F00041A8
:103790004FF0000040F2FE739A4238BF704713E0CA
:1037A000C3F1000330FA03FCC3F120029040A3EB05
:1037B000010202F212420CEB025141F0004140F2D0
:1037C000FE739A4238BF70474FF00041A8BFCFF652
:1037D000F0714FF0000070470021704760B3B0FAFD
:1037E00080F30B3B0FD4984001EB0302524202F2EC
:1037F000124200EB02514FF0000040F2FE739A4279
:1038000038BF704710E05B4230FA03FCC3F120027E
:103810009040A3EB010202F212420CEB025140F283
:10382000FE739A4238BF70474FF00001A8BFC7F639
:10383000F0714FF000007047002170470022A2F2A3
:1038400032425FEA215CACF10103A1EB03515B055D
:1038500013F5800F32D212EB535210D40B2A36DA02
:103860009140D2F1200330FA03F319439040BCF1A8
:10387000000FA8BF7047404261EB41017047203202
:103880000EDD01FA02F3D2F12002D140D0401843FC
:10389000BCF1000FA8BF7047404261EB4101704787
:1038A000524282F3050231FA02F00021BCF1000F0E
:1038B000A8BF7047404261EB4101704702D0002031
:1038C0000021704750EA013118BF4FF0000C6FF033
:1038D000004101EBDC716FEAEC70704710B50446F3
:1038E00023F0E4FE28B10346034A2344934200D860
:1038F00010BD0248FEF73CF900000820C8C60210BF
:1039000023F0DCBEFFF7EABFFFF7FABFFFF7F8BF0F
:10391000704700BF2DE9F04F83B098460F9B0F46CC
:1039200011469A070646DDF83090DDF838B012D11E
:103930000D9B5B450FD28A460C46ABEB03050D444D
:1039400052464346394620200AF1010AB047AA45AB
:10395000F6D1214600E00D460D9B93B109EB03041F
:1039600004EB050A01950D46AAEB040214F8010DBB
:1039700043463946B0474C45F6D129460D9B019D3B
:103980001D440F9B9B070CD56C1AA34509D92A46E9
:103990004346394620200134B047A34505F10105CF
:1039A000F5D8284603B0BDE8F08F00BF2DE9F04FF1
:1039B0000F9FDDF824E017F0020F0A9C9DF82C9071
:1039C0000E9DDDE90C8629D1002D66D1B44225D2A9
:1039D000202C07F0010B00F00A8104F1FF3C4FF0AE
:1039E000300AF44401E0202C76D00134A6420CF8D1
:1039F00001AFF8D8BBF1000F10D0AC420ED2202C92
:103A000070D004F1FF3C4FF0300AF44401E0202C68
:103A100022D00134AC420CF801AFF8D117F0100FEE
:103A200031D017F4806F4CD1DCB9B8F1100F00F031
:103A3000B880B8F1020F00F0C28030248EF8004048
:103A40000124B9F1000F5AD17E0740F186802B2660
:103A50000EF80460013418E0FC0673D57C052FD401
:103A60002024A64201D0AC422BD1661E00F08680F5
:103A7000B8F1100F00F0C080B8F1020F5BD04FF02A
:103A8000300C0EF806C0202CDBD1CDE90B57CDE968
:103A900009E4BDE8F04FFFF73DBF17F0010B3AD046
:103AA000B9F1000F4CD117F00C0F49D1B442A4D298
:103AB000202C92D1202D15D817F0100FB1D1E4E7AA
:103AC0002024B8F1100F3FD0B8F1020F2FD0202CD6
:103AD000DBD026460134D2E7BBF1000F00F09D8019
:103AE000202DB9D9FC062DD57C052BD4202E00F035
:103AF000A280202DE4D120251F262C46B8E72D26B4
:103B00000EF804600134CDE90B57CDE909E4BDE8B6
:103B1000F04FFFF7FFBEB44280D2202C7FF45DAFA0
:103B200017F0100FB1D017F4806FCAD199E7202C8D
:103B3000ABD0264601344FF0620C0EF806C0C6E743
:103B4000013DB3E72024A0E7BE060DD4202C9CD075
:103B500078260EF804600134B9E73E0795D5202693
:103B60000EF80460013490E7202C8ED04FF0580CF2
:103B70000EEB040686F800C00134A8E7B8F1100F78
:103B800043D0B8F1020F7FF458AF62248EF80040A2
:103B900030248EF801400224B9F1000F3FF454AFF5
:103BA000ADE7BE0617D558248EF8004030248EF8B5
:103BB00001400224B9F1000F3FF446AF9FE76226AF
:103BC0008EF80060302644468EF80160B9F1000F8F
:103BD0003FF43AAF93E778248EF8004030248EF813
:103BE00001400224B9F1000F3FF42EAF87E7BBF18B
:103BF000000F7FF461AF93E7A4F1020C3446BE06D8
:103C000007D478260EF80C6063E7BC06CBD4782482
:103C1000BCE758260EF80C605BE717F0100F3FF476
:103C200034AF17F4806F7FF430AF202E06D0202DF4
:103C30007FF447AF5FE734461F2619E71F2617E7D3
:103C400000B9704701F0DEBA10B1D1E90031184770
:103C5000704700BF000000002DE9F04F9DB09DEDC2
:103C6000267BDDE928A558EC177BCDE90C128346AD
:103C70001E463A464346384641468DED087B2A9C0F
:103C8000FFF766FC002840F0D580384641464FF0EB
:103C9000FF32734BFFF7BCFC002840F0CB80384666
:103CA00041464FF0FF326FF48013FFF775FC002898
:103CB00040F0C080DDE90878002238464146002304
:103CC000FFF76AFC002840F0BB81CDE90A78DDE906
:103CD0000A231F46904614F4806308BF4FF0060A7B
:103CE000119358EA070340F0BF8014F4006300F01A
:103CF0009F819FED597B00278DED0E7B4FF00008D3
:103D0000BA45CCBFAAEB070A4FF0000A4746C8BF26
:103D10000AF1FF3A44F48064454594BF4FF000092E
:103D2000A5EB080914F00203109304D0B8F1000FBA
:103D300018BF4FF000093FB1DDE90A01DDE90E23AC
:103D4000FFF762FBCDE90A01DDE90801002200234B
:103D5000FFF722FC30B1DDE90A01024601F1004320
:103D6000CDE90A239DED0A7B24F40063CDE902A985
:103D7000DDE90CA204938DED007B33465146584695
:103D800000F096F98146B8F1000F4FD014F0200FE3
:103D90004A460CBF6520452033465146D84709F1B5
:103DA000010487EAE77C0DF1500908F1FF304B462A
:103DB0000022DFF8B080ACEBE77C4FEAD77E01E071
:103DC000202A10D0E246A8FB0C71C90801EB81073C
:103DD000ACEB47073037BAF1090F8C4602F101020C
:103DE00003F8017BECD805230590069300200A23F5
:103DF0000C9FCDE90330CDE9012E3346CDF800907C
:103E0000224639465846FFF7D1FD109B81466BB1DB
:103E10000D9BC41AA54209D94A463346394620208B
:103E20000134D847A54209F10109F5D848461DB02B
:103E3000BDE8F08F9DED087BDDE90C123346584656
:103E40008DED267BCDE92954CDF8A0A01DB0BDE8AD
:103E5000F04F00F02DB900BF00000000000000008E
:103E6000FFFFEF7FCDCCCCCCC7F30A50A0F2FF30E0
:103E7000FFF726FB8AA3D3E90023FFF79FFA8AA363
:103E8000D3E90023FFF772FAC7F31307CDE90E0158
:103E900047F07F51404600227B4B41F44011FFF731
:103EA00079FA6BA3D3E90023FFF788FA02460B46A1
:103EB000DDE90E01FFF75AFAFFF726FB0746FFF789
:103EC000FFFA65A3D3E9002380468946FFF776FA17
:103ED00000226E4BFFF74AFAFFF716FB03464946EE
:103EE000404610935EA3D3E90023FFF767FA8046AC
:103EF00010988946FFF7E4FA5BA3D3E90023FFF7A4
:103F00005DFA02460B4640464946FFF743FA024631
:103F10000B4680468946FFF751FA42464B46CDE9AB
:103F20000E0140464946FFF721FA0022CDE9120171
:103F3000DDE90E01564BFFF767FA0022554BFFF7FC
:103F400015FA02460B46DDE90E01FFF75DFA002285
:103F5000514BFFF70BFA02460B46DDE90E01FFF766
:103F600053FA42464B468046894600204FF0804136
:103F7000FFF710FA02460B4640464946FFF7F6F9AE
:103F800002460B46DDE91201FFF73EFA0022434BE1
:103F9000FFF7ECF9109B002203F2FF3C4FEA0C53B1
:103FA000FFF70CFA80468946DDE90A0142464B4696
:103FB000CDE90E89FFF7F0FA60BB4346494607F1A9
:103FC0006302C72A34BF4FF004084FF005082205EA
:103FD0007FF5A2AE0B433FF491AEDDE90A0124A3C5
:103FE000D3E90023FFF700FB48B1DDE90A0122A372
:103FF000D3E90023FFF7D0FA00287FF47FAEBAF1AF
:10400000000F3FF489AE119B002B3FF485AE0AF1FF
:10401000FF3A81E600221F4B40464946FFF7F4F97C
:104020000A4601460346CDE90E12013F1146C6E796
:104030009FED137B1F464FF004088DED0E7B6BE662
:1040400008F100430A970B9341E600BFAFF30080ED
:1040500061436F63A787D23F71A379094F930A40E9
:104060001655B5BBB16B0240EF39FAFE422EE63F62
:104070002D431CEBE2361A3F0000000080842E41E5
:1040800000000000000000000000F83F0000E03FDA
:1040900000002C4000002440000018400000F03FC9
:1040A000FB799F501344D33FB3C8608B288AC63F27
:1040B0002DE9F04F97B0DDE92089CDE90401DDE974
:1040C000224BCDE90623404642464B464946DDF8A1
:1040D00090A0FFF73DFA002840F0C68140464946CF
:1040E0004FF0FF326FF48013FFF756FA002840F0CC
:1040F0001D81404649464FF0FF32C14BFFF788FA19
:10410000002840F0E380B8A3D3E9002340464946A5
:10411000FFF77EFA002840F0CB80B5A3D3E9002357
:1041200040464946FFF738FA002840F0C180404633
:10413000494600220023FFF72FFA002840F0E080D4
:104140001AF480650D9000F0E980092C40F2978107
:104150000EAB1A460C9330210023A4F1090501335C
:10416000202B02F8011BA4EB030600F03A81AB42BE
:10417000F5D19FED9D7B8DED087B49464046FFF7CD
:10418000C3F90446FFF79CF902460B4640464946F0
:10419000FFF700F9DDE90823FFF710F902460B46A7
:1041A000CDE90A23FFF7C2F90746FFF79BF902465C
:1041B0000B46DDE90A01FFF7EDF802460B46CDE9B3
:1041C0000A2300228F4BFFF723FA002800F0DB8040
:1041D00001373846FFF786F9DDE90823FFF704FACF
:1041E00008B100270134002E40F0B1802046FFF7CF
:1041F00067F902460B4640464946FFF7CBF80022D6
:10420000804B06460F46FFF7C7F940B9304639469E
:1042100000227C4BFFF7FCF9002800F016810C9B74
:10422000691E7948194410E080FB0462C3EBA203C5
:1042300003EB8302A4EB420404F1300201351C4677
:1042400001F8012F002B00F0AB80202D4FEAE47322
:10425000EAD10AF00303012B1CD1BBF1000F19D0E6
:104260000D9B002B40F0FA801AF00C0F40F0F68006
:10427000AB4540F2D380202D0BD030220C996B1E21
:104280000B4401355D4503F8012F00F08D80202D92
:10429000F7D12025DDE90623DDE904010C9CCDE9F9
:1042A00002BA01950094FFF735FB17B0BDE8F08F17
:1042B000CDE92089DDE90623DDE90401CDE923BA52
:1042C000229417B0BDE8F04FFFF7C6BC4F4DCDF8B4
:1042D0008CA00AF0040ABAF1000F4D4C18BF2C460E
:1042E000DDE90623DDE9040120940CBF0324042446
:1042F000CDF888B0219417B0BDE8F04FFFF70ABBA6
:10430000012142464B460D9100200021FFF742F863
:104310001AF48065804689467FF417AF9FED367B9F
:104320000EAB06268DED087B0C9326E70424DDE911
:104330000623DDE90401374DCDF88CA0CDF888B017
:104340002095219417B0BDE8F04FFFF7E3BA0C9B1E
:10435000681EDFF8C4C018440DE0ACFB0732D20879
:1043600002EB8203A7EB43033033092F00F8013F30
:1043700027D917460D46202D05F1010106F1FF361C
:10438000EBD120254BE70022DDE90A011D4BFFF7A9
:1043900003F900287FF427AF002F5BD1013722E714
:1043A0000AF00303012B76D0202D3FF473AF0D9B51
:1043B000BBB32D2205F158036B4403F8202C0135C3
:1043C00068E72029DDD0AEB30C9B0E441D4430239A
:1043D00001E0B1422FD00131202905F8013FF8D189
:1043E000CFE71D46C5E600BF0000000065CDCD410A
:1043F0000000000065CDCDC10000000080842E418A
:10440000FFFFEF7F0000E03F6766666670C702103F
:1044100078C7021080C70210CDCCCCCC202D3FF441
:1044200039AF1AF0040F0ED11AF0080F3FF432AF73
:104430002022BFE70E462E2206F158036B4403F8F4
:10444000202C751CEBE62B22B4E7E3077FF5E7AEE3
:104450000134E4E6FA077FF5C6AE9FE70BF1FF3BB8
:10446000AB453FF608AF9FE70324DDE90623DDE90E
:1044700004010B4DCDF88CA0CDF888B060E7094B56
:10448000264603EBC40393ED007B0EAB8DED087B5A
:1044900000250C9371E6BBF1000F85D0E0E600BF6C
:1044A0007CC7021088C702102DE9F04F1C469B4DB7
:1044B0009B4BB1F1000A18BF83461D602078994DCF
:1044C0009BB008BFAB469146249E002800F0E782CF
:1044D0000025B04609E02A464B465146D8470135EB
:1044E00001342078002800F0BD802528F3D1002277
:1044F000631C1C4613F8010BA0F1200110290AD8F7
:10450000DFE801F03D09093A0909090909090937F4
:10451000093409093100A0F13003092B099440F254
:10452000B0802A2800F0CD802E284FF0000600F041
:10453000B9800027A0F16803122B29D8DFE813F017
:1045400005012800FE002800F400280028002800AB
:104550002800280028002800220028002800280021
:1045600028002800220042F00102C2E742F00202C5
:10457000BFE742F00402BCE742F01002B9E742F0A4
:104580000802B6E7099B42F4807258780133099318
:1045900067284AD824285AD9A0F12503422B56D897
:1045A000DFE813F0F60055005500550055005500A2
:1045B0005500550055005500550055005500550053
:1045C0005500550055005500550055005500550043
:1045D0005500550055005500550055005500550033
:1045E000550055009E00DD009E0055005500550009
:1045F0005500550055005500550055005500550013
:1046000055005500550055005500960155005500C0
:1046100055005500550055005500550055009601B0
:10462000FF0096019E00DD009E00A0F16901C9B265
:104630000F290CD8012349F241048B40234040F05C
:10464000DC810A2900F0E880072900F0C580099C78
:104650002A464B4651460134D84720780135002878
:104660007FF443AF2C462A46914502D809F1FF3327
:104670001A464B4651460020D84720461BB0BDE89D
:10468000F08F2346002606EB860600EB460613F85D
:10469000010F303EA0F130010929F4D909932E28E9
:1046A0007FF447AF099B42F480625878591CA0F10F
:1046B0003003092B40F2F2802A2800F0FE80099195
:1046C00037E7434653F8046B9846099B002E587809
:1046D00003F10103BCBF42F0020276420993DEE718
:1046E000672800F07581472800F0BA81452800F05E
:1046F000B981CDE9036208F10703029723F00708A7
:104700002A46F8E802674B4651465846CDE900670D
:10471000099CFFF7A1FA01340546E2E6A94400101E
:10472000C857002011390010099B58786C2800F0F8
:10473000B081013342F48072099329E7099B42F466
:10474000007258780133099322E7099B587868284A
:1047500000F09981013342F08002099318E746285E
:1047600008BF42F02002CDE9036208F10703029777
:1047700023F007082A46F8E802674B465146584698
:10478000CDE90067099CFFF793FC01340546A8E6D4
:10479000099C2A464B465146252001340135D8470D
:1047A0009FE6940740F17E8158F8040B2A464B4659
:1047B0005146C0B2D8476F1C012E98BF3D4608D95C
:1047C00035443A464B46514620200137D847AF4240
:1047D000F7D1099C013484E6404650F8041B0029B7
:1047E00000F0D68042F0210612AA94460A9203E015
:1047F000202B00F0D780114601F00F042246092C2F
:1048000094BF303237320F290CF8012B03F101032A
:104810004FEA1112ECD8C5E0C4465CF8041B0878D6
:10482000002F40F0AF806FF0010858B108F1010887
:104830000B46884401E0434503D013F8014F002C98
:10484000F9D15B1A12F4806E02D0BB4228BF3B46FE
:1048500012F002020A9200F03E81002800F0BB80B4
:104860008846BEF1000F00F000812A4664462F44BE
:104870000B9307E04B465146D84718F8010F013516
:1048800010B12A46AF42F5D1A4460B9B0A9A002AE2
:1048900040F0A180E046099C013422E6002707EBA6
:1048A000870700EB4700A0F1300711F8010FA0F1D6
:1048B0003003092BF3D909913CE64346099953F893
:1048C000047B887802319846099127EAE77731E638
:1048D000622800F08781582800F08D8112F48063EF
:1048E00000F0738122F0110E1EF4007C40F00F8165
:1048F0001EF4807040F0D7811EF0400F424640F019
:104900005E811EF0800F00F0898232F9041B904610
:1049100081EAE17CACEBE17C1FFA8CFCCA0F002938
:1049200000F0F481634612A98C46CDE90B28B74C00
:104930000A9101E0202810D09846A4FB0312D20867
:1049400002EB8201A3EB41013031B8F1090F1346AC
:1049500000F101000CF8011BECD8DDE90B28CDE9D2
:10496000056ECDE9010204970A9B2A4600930A23AB
:1049700003934B4651465846FFF718F8099C0546E5
:104980000134AEE500283FF45DAF07F1FF384DE795
:1049900022F0100612F4806146F021063FF424AFA5
:1049A00012AA0A9201930A9B8046009308231020C2
:1049B000059300232A46CDE9023051464B4658461E
:1049C00006960497099CFEF7F1FF0134054688E539
:1049D00042F400628DE69E422F467FF65BAF64464E
:1049E0003544ED1A3A464B46514620200137D84708
:1049F000AF42F7D1A446E0464DE7782840F0218148
:104A000012F4806300F0218222F00D0C10220B9230
:104A10001CF4007040F0FC801CF4807140F0B981FF
:104A2000404650F8042B1CF0400F804600F0AC814B
:104A3000D2B2002A40F011812CF0100C002B00F0B3
:104A40000C81114612AB0A930B9BCDE9056C0497C0
:104A5000039301912A460A9B00930023029388E75F
:104A600042F4006242F0200243E61C4667462A46B2
:104A70004B465146D84718F8010F01350028F6D1AA
:104A80002346BC4602E79878023342F0C0020993FD
:104A90007EE59878023342F44072099378E5044643
:104AA0000246E1E5012E40F2C6812F466B1E9C199D
:104AB0003A464B46514620200137D847A742F7D106
:104AC0003A46354458F8040B4B465146C0B2D847D5
:104AD000099C013405E59E4240F2B0816446CDE96F
:104AE0000BE106EB0508A8EB03082A464B465146A6
:104AF00020200135D8474545F7D1DDE90BE108789D
:104B0000A446731C00287FF4ABAEE046C3E608F170
:104B1000070222F007029046526858F8081BD40F8B
:104B200051EA020054D1002B40F08081194612AAAC
:104B30000F954FF0000C1546CDE90B48CDE90D67F8
:104B400032480A9202E0BCF1200F2DD05A1842F1EF
:104B50000002A0FB027828F0030707EB9807D21B9E
:104B60001E469B1A61F100070C464FF0CC3101FB49
:104B700003F100FB0711A3FB00731944052307F0A1
:104B80000108A8FB03389B180A2E03F130034FEAF3
:104B9000570774F1000405F8013B0CF1010C47EADA
:104BA000C1734FEA5101CED20F9DDDE90B48DDE91B
:104BB0000D67CDE9056ECDE901C40497D4E652F83E
:104BC000041BC9B290468C46A8E622F0100E8BE674
:104BD000002A0B4601DB1146A9E74B4262EB420279
:104BE0001146A4E712F4806300F0E78022F00D0C78
:104BF00002220B920CE712F4806300F0248122F071
:104C00000D0242F0200C10220B9201E7CDCCCCCC4F
:104C100008F1070222F007029046526858F8081B74
:104C200010460A4378D12CF0100C002B74D00024CD
:104C300012AB0A930B9BCDE9056C04970393019487
:104C400008E76F2840F00D8112F4806322F00C0C0D
:104C500040F0018108220B92DAE61CF0200F14BF0D
:104C60004123612312A886460A90CDE90C860B9851
:104C7000A3F10A0402E0202912D04246B2FBF0F868
:104C800000FB1826F3B2092E03F130068ABF1B1968
:104C9000F3B2DBB282420EF8013B01F10101EAD22C
:104CA000DDE90C86D0E6414651F8040BC20F00281E
:104CB00000F0AE8080EAE073A3EBE07312A8CDE9C8
:104CC0000B26DFF8C4810A9002E0BCF1200F0FD060
:104CD0001E46A8FB0342D20802EB8204A3EB440465
:104CE0003034092E13460CF1010C00F8014BECD8BE
:104CF000DDE90B260A9BCDE901C200930A232A466F
:104D00008846CDE9056E0497039332E6002B3FF405
:104D10000AAE12AB0A9322E61CF0200F14BF412307
:104D2000612312AA0A3BCDE90C86CDE90E75CDF8B8
:104D300044B0002490460E4605469B460B9F0A92BF
:104D4000CDF840C003E0202C17D006460D4629467A
:104D500030463A46002326F0E3F8D2B2092A02F19F
:104D6000300388BF02EB0B03BE42DBB275F10005D6
:104D700008F8013B04F10104E5D2DDE90C86DDE928
:104D80000E75DDE910CB55E71CF0800F18BF92B20D
:104D90004FE6414651F8042BA2B92CF0100C8BB110
:104DA00012AB0A930B9B2A4603930A9B8846CDE9D4
:104DB000056C0497019000934FE622F00C0C022240
:104DC0000B9225E61CF0200F14BF4123612312AC87
:104DD000A6460A94CDE90C670B9CA3F10A0802E0F1
:104DE000202812D03A46B2FBF4F704FB1726F3B2A0
:104DF000092E03F130068ABF4344F3B2DBB2A2426C
:104E00000EF8013B00F10100EAD2DDE90C67C9E7C9
:104E1000002B3FF453AF12AB0A936BE752F8041B1D
:104E200081EAE17C9046ACEBE17C77E512AB4FF098
:104E3000000C0A93BDE62A46013543E601330028FB
:104E40007FF40EAD61E642F0200222F00C0C10223D
:104E500000230B92DCE5964608220B922EF00D0CF7
:104E6000D6E5692822F0100E04D112F480633FF4D5
:104E70003BAD37E522F01C0C12F480634FF00A02C0
:104E80000B92EBD1C4E500BFCDCCCCCC70B5944631
:104E90001E4605460C4684B04FF0FF32634602A919
:104EA00000960348CDE90254FFF7FEFA04B070BD46
:104EB000493C00100FB410B50E4B84B006A91C6815
:104EC00051F8043B03915CB100914FF0FF3202A90D
:104ED0000948A047012004B0BDE8104004B0704765
:104EE000184600F0D1F9204604B0BDE8104004B0E7
:104EF000704700BFC8570020413C001010B5094B57
:104F000084B01C684CB1034600914FF0FF3203A9F6
:104F10000548A047012004B010BD00F0B5F92046B7
:104F200004B010BDC8570020413C001000BEFDE792
:104F3000074A0346106838B1064903448B428CBFC8
:104F40004FF0FF3013607047034908461160F3E7E4
:104F50007852002000000820C4BC002000207047C8
:104F60004FF0FF30704700BF08B5FFF7DFFF00BF0D
:104F70009C46144600B50B460246614683B044B1D8
:104F8000054D064801940095FFF794FF0120FFF7B7
:104F9000CDFF034D2C46F4E7D8C70210E8C7021036
:104FA00078B0021038B5064D064CFEF7A9F8AC42B1
:104FB00004D254F8043B9847AC42FAD338BD00BF42
:104FC00000B00210F0AF02100368084611461847FF
:104FD0002DE9F04F437D82468846174681B0002B6D
:104FE00047D0002A24DD002401252046DFF89490D4
:104FF0004E1E04B3737806F1010B0A2B26D02B4604
:105000005E46BB4204F1010405F10105F1DB874274
:1050100004DD391ADAF8003040449847B84418F8EB
:10502000013CA3F10D03B3FA83F35B098AF8143052
:1050300001B0BDE8F08F737806F1010B0A2BDED1C9
:105040009AF8143063B15E462B46DAE733780D2BBD
:10505000F9D0A04204DA211ADAF800304044984727
:105060004846DAF80030022198475E4628462B462B
:10507000C7E711464046DAF8003001B0BDE8F04F0E
:10508000184700BF18C802100B682DE9F041802BAB
:105090000D46064605D05A1C2B442A601E71BDE8F9
:1050A000F0810F4B1C68A4B10E4F01F1040801E020
:1050B000246974B12368002BFAD03B680BB1A3427A
:1050C000F6D1204641462A68FFF782FF2469002C6A
:1050D000F0D1002301222B442A601E71BDE8F0812B
:1050E000444D0020904D00202DE9F04782B00D4640
:1050F000924699460746FDF713FE4FF0FF366FF0D4
:1051000000442F4A821841F10003964274EB0301D8
:105110003CBF324623462B4825F01AFF6B1C8046C5
:1051200003D1384623F08AF90546274B274E1C68E1
:10513000274BB9F1000F18BF1E46B4B1BAF1000FEA
:105140001AD1DFF8909001E0246974B12368002B34
:10515000FAD0D9F800300BB1A342F5D120462A4647
:105160003946B0472469002CF0D1B8F1000F1FD1A7
:10517000284602B0BDE8F0874FF00A0ADFF85490E5
:1051800002E02469002CF0D02368002BF9D0D9F874
:1051900000300BB1A342F4D120462A463946B0472D
:1051A000204601220DF107018DF807A0B047E8E77E
:1051B000044825F0B9FE284602B0BDE8F08700BFDC
:1051C00040420F0090300020444D0020C94F001095
:1051D000D14F0010904D0020084A136823B90AE00F
:1051E00003F110021B6933B19842F9D129B903695F
:1051F00013600161704701B110607047444D002099
:1052000000F0E2BAF0B583B006468DF80700FDF76E
:1052100087FD4FF0FF356FF00044174A821841F1C7
:105220000003954274EB03013CBF23462A46134812
:1052300025F08EFE124B07461C689CB1114D01E013
:1052400024697CB12368002BFAD02B680BB1A342F0
:10525000F6D1204601220DF10701FFF7B9FE2469BE
:10526000002CEFD117B9304603B0F0BD034825F04C
:105270005BFE304603B0F0BD40420F00903000208E
:10528000444D0020904D002038B5044623F0D6F858
:10529000012305461A4620462946FFF725FF084BFD
:1052A0001C682CB163682BB198472469002CF9D194
:1052B000284638BD2469002CF4D1284638BD00BFEB
:1052C000444D00202DE9F041A2B004460D46FDF703
:1052D00027FD4FF0FF376FF00046274A821841F153
:1052E0000003974276EB03013CBF3A46334623481E
:1052F00025F02EFE00262B4607462246204801A90F
:105300000196FFF7C3FD019B06467BB91D4B1C6848
:105310002CB1636843B198472469002CF9D10FBBC5
:10532000304622B0BDE8F0812469F1E7DFF854800F
:10533000D8F80050EDB1144C01E02D6975B12B681F
:10534000002BFAD023680BB1AB42F6D12846019A64
:1053500002A9FFF73DFE2D69002DF0D1D8F80040DD
:105360000195D5E7054825F0DFFD304622B0BDE8C0
:10537000F0810195D3E700BF40420F00903000203C
:1053800089500010444D0020904D00200FB400B50E
:1053900083B004A951F8040B0191FFF793FF03B008
:1053A0005DF804EB04B07047704700BF0022014B6A
:1053B0001A707047A2BC00204B79FF2B0BD1887963
:1053C00048B9CB79012B07D1082A05D9034B8A7834
:1053D00009201A7070470020704700BFA2BC00204F
:1053E00001207047012901D00120704708B5104BFA
:1053F00091881B78994201D0002008BD5378012B79
:1054000008D0022BF8D1002164220846FDF758FD90
:10541000012008BD5188CB054BBF4A0A4A0A1046F5
:105420004FF0FF3002F0010201F07F01FDF7C6FDF1
:10543000A2BC002000487047E4C80210012907D12F
:105440005378012B02D19388072B03D0002070479B
:10545000012070471146A623014A01F063BA00BF3C
:105460003CC802100346012201481A70704700BF71
:105470001CC8021008B50B68B3F5966F00D008BDC4
:1054800000224FF0FF301146FDF798FD024A034B12
:1054900010601960704700BF583E00205C3E00203D
:1054A000184B70B51A68002A28D0EFF3108172B635
:1054B000D2E8CF4F0120002CFAD1C2E8440F002CD3
:1054C000F6D1BFF35F8F00220F4C1868596022702D
:1054D000C0E88F2F81F31088002400250B4E307810
:1054E000FCF782FC20B9002400252046294670BD27
:1054F0003078FCF789FC2046294670BD4FF47A7459
:105500000025EBE7B4910020A7BC0020A5BC00203B
:10551000014B1878FCF778BCA5BC002038B50446D0
:1055200000200D4601F02AFBA8B3002001F03CFB4F
:1055300088B3FDF7F5FB4FF0FF3E6FF0004C174AC4
:10554000821841F1000396457CEB03013CBF724693
:105550006346134825F0FCFCE8B1002001F00EFB87
:1055600058B900214FF0FF3000F020FD6FF0020429
:105570000B4825F0D9FC204638BD002001F014FB73
:105580000028EED021462A46002001F019FB0446EF
:105590000028EDD1EAE76FF00204ECE740420F008B
:1055A000D8BB002008B5FDF7BBFB4FF0FF3E6FF006
:1055B000004C0F4A821841F1000396457CEB030131
:1055C0003CBF724663460B4825F0C2FC70B14FF0F9
:1055D000FF30002100F0EAFC002001F037FB00283A
:1055E000F5D1BDE80840034825F09EBC08BD00BFCA
:1055F00040420F00D8BB00202DE9F84307460E4675
:10560000FDF78EFB4FF0FF356FF00044344A8218EF
:1056100041F10003954274EB03013CBF2A46234647
:10562000304825F095FC08B9BDE8F883002001F06A
:10563000A5FA002849D0002E42DD0025DFF8A88019
:10564000DFF8A89013E00246002001F045FB00219E
:1056500004464FF0FF3000F0A9FC002001F0F6FAFC
:10566000FDF75EFBC8E900012544AE4228DD0020BD
:1056700001F054FB731B9842A8BF184679190446E1
:105680000028E0D101464FF0FF3000F08FFC2046AB
:1056900001F0DCFA204601F071FA88B1204601F0F1
:1056A0003DFB0028E1D1FDF73BFBD8F80030D8F8EE
:1056B000042013EB090342F1000283428A41D4D251
:1056C0000848BDE8F84325F02FBC00200021064B18
:1056D000C3E90001BDE8F843024825F025BC00BF3E
:1056E00040420F00D8BB00204033002020A107001B
:1056F00030B5002185B02E4825F04EFCF0B92D4B79
:105700001A68CAB1EFF3108172B6D2E8CF5F0124F4
:10571000002DFAD1C2E8454F002DF6D1BFF35F8FBF
:10572000254C1D6822785960D3B201222270C5E849
:105730008F0F81F31088CBB105B030BD00214FF041
:10574000FF3000F033FC002001F02EFA0446184828
:1057500025F0EAFB002CEFD0184B1B68002BEBD098
:10576000174A106805B0BDE830401847FDF7ACF89F
:105770000446FDF7D5FA4FF0FF3C6FF0004510F5F9
:105780007A7241F10003944575EB030138BF2B4653
:105790004FF000014FF0010520460A4C38BF624629
:1057A000CDE901150094FDF793F805B030BD00BFB9
:1057B000D8BB0020B4910020A7BC0020583E002098
:1057C0005C3E0020A15400104FF0504330B585B02E
:1057D0001C68FDF779F8FDF78DF9A04202D0002092
:1057E00005B030BD00212A4B08461B7801F064FD4E
:1057F00028480368002B47D00120FCF7CBFD034667
:10580000254C2649C0B22370FCF71AFB20780121F1
:10581000FCF7D4FA0E20FCF703FB40BB204B01251C
:10582000C3E90000FDF750F80446FDF779FA4FF0A0
:10583000FF3E6FF0004C10F57A7241F1000396457F
:105840007CEB03014FF000012046164C3CBF724632
:105850006346CDE901150094FDF73AF80028BEDB58
:1058600001211148FFF7B8FC012005B030BD01202F
:10587000FCF760FA01460A48FCF70AFE00220E20F7
:105880000A49FCF70DFBEBE7FCF7D8FDB4E700BFD6
:1058900058D10610D8BB0020A5BC0020F15600103E
:1058A000B4910020A15400101C26002011550010B6
:1058B00000487047B8C902100048704764C9021018
:1058C00038B5184B04461A780AB344B940F2094275
:1058D0004FF44173144D6A8013482B8038BD052C5A
:1058E0001AD8124B104D53F82410284600230139C2
:1058F00003E0132B20F8022F10D011F8012F0133F1
:10590000002AF6D1DBB25B0043F44073E4E71121D7
:10591000184600F02DF8D8E7002038BD4FF44A7340
:10592000DAE700BF44BC00205C4800204CC90210EC
:1059300000B545F247308BB0FDF734FB012203463A
:10594000092101A89847DDE90332044912BA1BBABC
:10595000C1E900230BB05DF804FB00BF08BA0020CA
:105960000346024A03CA18605960704708BA00200B
:10597000012901F1FF3300F0B3805D4991F800C0C7
:105980004FEA2C12BCF19F0F8CBF37323032012B03
:10599000027000F0A8800A7802F00F02092A8CBF7A
:1059A00037323032022B427000F09D804A784FEA45
:1059B000221C9F2A8CBF0CF1370C0CF1300C032BEE
:1059C00080F802C000F08F8002F00F02092A8CBF1D
:1059D00037323032042BC27000F085808A784FEA6B
:1059E000221C9F2A8CBF0CF1370C0CF1300C052BBC
:1059F00080F804C077D002F00F02092A8CBF37323A
:105A00003032062B42716ED0CA784FEA221C9F2A90
:105A10008CBF0CF1370C0CF1300C072B80F806C052
:105A200061D002F00F02092A8CBF37323032082BC6
:105A3000C27158D00A794FEA221C9F2A8CBF0CF100
:105A4000370C0CF1300C092B80F808C04BD002F059
:105A50000F02092A8CBF373230320A2B427242D0F1
:105A60004A794FEA221C9F2A8CBF0CF1370C0CF1AB
:105A7000300C0B2B80F80AC035D002F00F02092A37
:105A80008CBF373230320C2BC2722CD08A794FEA5D
:105A9000221C9F2A8CBF0CF1370C0CF1300C0D2B03
:105AA00080F80CC01FD002F00F02092A8CBF3732D9
:105AB00030320E2B427316D0CA7911119F2A8CBF37
:105AC000373130310F2B81730DD002F00F02092ACC
:105AD00094BF30323732102BC27318BF103002D04F
